:100000000C94DB000C9403010C9403010C94030189
:100010000C9403010C9403010C94430C0C94CB0A34
:100020000C9403010C9403010C94FB110C94030138
:100030000C9403010C9477130C942E040C9403017C
:100040000C9403010C9403010C9467090C94AA0905
:100050000C9403010C9403010C9403010C94030110
:100060000C9403010C9403016E6F20636F6D6D207F
:10007000626F6172642E2073746F702E0D0A0064BB
:1000800063630D0A001B5B324A201B5B3F32356CF9
:10009000201B5B3F31326C20762569206425690D79
:1000A0000A00636E663A202569206125692025696A
:1000B0002061256920256920747970652025690DE6
:1000C0000A006D62207479702025692C206D6F64A0
:1000D000656C2025692C20687756657273696F6E90
:1000E0003A2025692E25692C20667756657273693A
:1000F0006F6E3A2025692E25690D0A00636F6D3AEF
:1001000020316120256920326120256920747970B1
:10011000652025690D0A0055480D0A006D6F64655C
:100120006C2025692C20687756657273696F6E3A6A
:100130002025692E25692C20667756657273696FB4
:100140006E3A2025692E25690D0A000D0A001B5BF9
:10015000316D253033691B5B306D3A2025303369B2
:1001600009001B5B3F31326C001B5B3F32356C007A
:1001700073746F702048423A2025690D0A00455279
:10018000523A20002569202569202569202569200B
:1001900025692025690D0A00496E76616C69642025
:1001A0004F5053204356207061636B65740D0A00F5
:1001B000640D0A00831811241FBECFEFD8E0DEBF04
:1001C000CDBF11E0A0E0B1E0E0E4FAE302C00590A9
:1001D0000D92A833B107D9F722E0A8E3B1E001C03E
:1001E0001D92AC39B207E1F710E0CBEDD0E004C0CE
:1001F0002197FE010E94F418CA3DD107C9F70E9459
:10020000FE170C94F61C0C940000682F80E00E94EE
:10021000BA0890E080E00895EAE7F0E08081876026
:100220008083ACE7B0E08C9180648C93808180689F
:100230008083808180648083089590917C00907F8A
:1002400090937C0090917C00892B80937C0080911E
:100250007A00806480937A0080917A0086FDFCCFDA
:1002600080917800909179000895CF93DF93CDB776
:10027000DEB72C970FB6F894DEBF0FBECDBF8EEB66
:1002800089838BEA8A8385E08E8381E08F838887E8
:10029000898784E08A878B8786E08C8787E191E075
:1002A0009F938F930E9474174CE050E060E071E0E0
:1002B000CE0101960E94951C0F900F902C960FB6C0
:1002C000F894DEBF0FBECDBFDF91CF910895CF93DD
:1002D000DF93CDB7DEB72C970FB6F894DEBF0FBE15
:1002E000CDBF4CE050E060E071E0CE0101960E948D
:1002F0007D1C8E811F928F938F811F928F938B8194
:100300001F928F938C811F928F938D811F928F9359
:100310008CE191E09F938F930E94741710925A0181
:1003200081E0809354010FB6F894DEBF0FBECDBFBD
:1003300089818E3B19F48A818B3A69F084E080933D
:100340005A010E9435014CE050E060E071E0CE01BE
:1003500001960E947D1C88852A8530E03595279579
:10036000359527958217130609F080E099852B852E
:1003700030E0359527953595279592171306A1F509
:10038000882341F1992391F198131DC08093540162
:100390008B8180935B018C8180935C018D81809344
:1003A0005D018E8180935E018F8180935F018C85DA
:1003B000809358012C960FB6F894DEBF0FBECDBFC8
:1003C000DF91CF91089580915A01836080935A0103
:1003D00081E0DCCF9923E1F280915A018160809322
:1003E0005A0190935401D4CF882391F290915A01ED
:1003F000926090935A01CACFCF93DF93CDB7DEB707
:100400002C970FB6F894DEBF0FBECDBF9EEB99833D
:100410009BEA9A8395E09E8391E09F8388878987F2
:10042000880F880F8A878B87809158018C874CE0D2
:1004300050E060E071E0CE0101960E94951C2C9680
:100440000FB6F894DEBF0FBECDBFDF91CF910895F8
:100450009F92AF92BF92CF92DF92EF92FF920F9353
:100460001F93CF93DF93D82EE82EF12CC1E0D0E07C
:10047000CE19DF099C2E990C982F990F83E0C82E76
:10048000C91A23E0A22EB12C892D0E941D018C01D6
:100490008C2D0E941D0121E0A21AB108A9F7F701D5
:1004A000EC5AFE4F9801255733402C35310508F0A2
:1004B00046C09C01255733402C35310510F422E00D
:1004C00021839801275E31402233310508F044C072
:1004D000AC01475E514042335105F0F523E02183E2
:1004E00021811F922F939F938F93EE0CFF1C83E02B
:1004F00090E08E199F099F938F931F930F93CC0FBA
:10050000DD1FDF93CF931F92DF9282EA90E09F93EB
:100510008F930E9474178DB79EB70E960FB6F894FE
:100520009EBF0FBE8DBFDF91CF911F910F91FF90A6
:10053000EF90DF90CF90BF90AF909F9008950115FE
:10054000110509F0BECF9C01255733402C353105EC
:1005500008F0B7CF21E0B4CFAC01455753404C353C
:10056000510508F0BDCF2233310510F424E0B7CF98
:1005700098012E5133402235310508F0B1CF25E0E6
:10058000AECFCF93DF9310925501109256018FEFAB
:100590008093570180E00E94280281E00E94280297
:1005A00086E00E941D01EC0187E00E941D019E0172
:1005B0002E5133402235310508F048C09C012E51A0
:1005C00033402235310518F421E020935701209162
:1005D00057011F922F939F938F93DF93CF938CEFAD
:1005E00090E09F938F930E94741780915E011F92F9
:1005F0008F9380915F011F928F9380915B011F9277
:100600008F9380915C011F928F9380915D011F9267
:100610008F93809158011F928F9382EC90E09F936B
:100620008F930E947417389A4098399A41983A9A51
:1006300042983B9A43988DB79EB746960FB6F8946A
:100640009EBF0FBE8DBFDF91CF9108959E01275EA3
:1006500031402233310508F0BACF9C012E5133408E
:100660002235310508F0B3CF22E0AFCF809155019C
:100670008150990B029720F45498559856985798A2
:10068000809156018150990B029720F4219822986D
:10069000239824983C9A0895883048F5E82FF0E094
:1006A000E850F34E0C94F41889B182958170089546
:1006B00089B185FB882780F9089589B186FB882751
:1006C00080F9089589B1881F8827881F089583B10C
:1006D00086958170089583B182FB882780F90895FB
:1006E00083B183FB882780F9089583B1DECF80E052
:1006F000089586B18071089510926601109261018B
:1007000010926201109263011092640110926701CD
:100710003D9A089580936501109260014093000115
:1007200050930101609302017093030110926101E3
:1007300010926201109263011092640181E0809333
:100740006701109266010895109260011092650190
:100750001092000110920101109202011092030107
:100760001092610110926201109263011092640173
:100770001092660110926701459808958F929F929A
:10078000AF92BF92CF92DF92EF92FF920F931F939F
:10079000CF93809167018823C9F1C09166010E94BF
:1007A0005104009161011091620120916301309127
:1007B00064014B015C01801A910AA20AB30AC0903D
:1007C0000001D0900101E0900201F0900301C814F3
:1007D000D904EA04FB0420F0012B022B032BB1F413
:1007E000609361017093620180936301909364014F
:1007F00080916601811116C081E08093660180912D
:1008000066018C1719F0811124C04598CF911F9172
:100810000F91FF90EF90DF90CF90BF90AF909F909F
:100820008F9008951092660190916501809160010A
:10083000992359F0492F4150550B8417150611F093
:10084000913019F40E94A403DACF8F5F8093600186
:10085000D6CF459ADBCF8091670108951F921FB6CE
:100860001F9211248F939F93AF93BF938091680140
:1008700090916901A0916A01B0916B010196A11D4F
:10088000B11D8093680190936901A0936A01B093B0
:100890006B01BF91AF919F918F911F901FBE1F90D1
:1008A0001895F894609168017091690180916A01CE
:1008B00090916B0178940895E6B52091680130918C
:1008C000690140916A0150916B01AAEFB0E00E946A
:1008D000FA186E0F711D811D911D22E0660F771FA2
:1008E000881F991F2A95D1F70895F89414BC15BC58
:1008F00016BC89EF87BD84B5826084BD85B58360F1
:1009000085BDEEE6F0E08081826080837894089572
:10091000FC0190818481980F8581980F8181980FC7
:100920008281980F8381890F0895CF93DF93C6E862
:10093000D1E022EE288328E02983209154012D83E1
:10094000FC0185818C831A821B821F82CE010E944A
:1009500088048887CE010E948D1840E355E760E047
:1009600070E081E0DF91CF910C948A030F931F9385
:10097000CF93DF93EC0180916C01882309F464C06C
:1009800002EE0093860117E01093870180915401D5
:1009900080938B018D8180938A0180915501809392
:1009A0008801809156018093890182E080938D01B6
:1009B00086E891E00E94880480938E0186E891E0A9
:1009C0000E948D1800938601109387018091540135
:1009D00080938B018D8180938A018091580180934F
:1009E0008801809159018093890181E080938D0174
:1009F00086E891E00E94880480938E0186E891E069
:100A00000E948D18009386011093870180915401F4
:100A100080938B018D8180938A0180915A0180930C
:100A2000880186E48093890110928D0186E891E027
:100A30000E94880480938E0186E891E0DF91CF9137
:100A40001F910F910C948D18DF91CF911F910F91F1
:100A50000895CF92DF92EF92FF920F931F93CF935F
:100A6000DF937C0180916C01882389F10E94CD0B7A
:100A70008C01C0E082EEC82E92E0D92ED3E0C09265
:100A80008601D09287018091540180938B01F701F8
:100A9000858180938A01F801808180938801828119
:100AA000809389018C2F8695FD2FF81BF0938D0183
:100AB00086E891E00E94880480938E0186E891E0A8
:100AC0000E948D18CE5F0C5F1F4FC830C1F6DF91BA
:100AD000CF911F910F91FF90EF90DF90CF900895ED
:100AE00021E020936C0122EE2093860126E02093E2
:100AF00087012091540120938B01FC018581809313
:100B00008A01209388012093890186E891E00E9460
:100B1000880480938E010E94821924E130E040E035
:100B200050E00E94D5186150710938F08FEC97E0C1
:100B30000197F1F700C00000F6CF86E891E00C9431
:100B40008D18CF93DF93EC018981843071F59091FA
:100B50003A01992351F110923A0192EE9093860155
:100B6000809387018A8180938B018D8180938A0194
:100B7000109288011092890186E891E00E94880411
:100B800080938E0186E891E00E948D188A8180937F
:100B900054010E94FC014CE251E060E070E0809161
:100BA0005401DF91CF910C948A03DF91CF91089586
:100BB000CF92DF92EF92FF920F931F93CF93DF9329
:100BC0007C01C6E8D1E002EE088311E0198384E5D8
:100BD000C82E81E0D82EF60180818D83F7018581B2
:100BE0008C8383E08A8382E08B838F83CE010E9493
:100BF00088048887CE010E948D1808831983F60126
:100C000080818D83F70195819C838A838B831F83E9
:100C1000CE010E9488048887CE01DF91CF911F9179
:100C20000F91FF90EF90DF90CF900C948D18CF92A2
:100C3000DF92EF92FF920F931F93CF93DF93EC011C
:100C400080917501882309F464C086E791E0FC0176
:100C500001900020E9F7CF018757914022EE2093C1
:100C6000860121E0209387012091540120938B017C
:100C70002D8120938A0122E0209388019695879503
:100C8000182F809389018F5F80938D0186E891E012
:100C90000E94880480938E0186E891E00E948D185E
:100CA00000E036E7E32E31E0F32E42EEC42EDD24E1
:100CB000D394F70101900020E9F7CF0187579140C5
:100CC000E02FF0E0E817F90710F5C0928601D09206
:100CD00087018091540180938B018D8180938A01DB
:100CE000EA58FE4F80818093880181818093890139
:100CF00010938D0186E891E00E94880480938E0114
:100D000086E891E00E948D180E5F1150D2CF1092AC
:100D10007501DF91CF911F910F91FF90EF90DF90C0
:100D2000CF900895529A5A983D9A89E0EFE8F1E001
:100D3000DF01982F1D929A95E9F7E6E8F1E0DF01CF
:100D40001D928A95E9F70895E6E7F1E020E1DF01D9
:100D50001D922A95E9F740E150E0BC01CF010E94C5
:100D6000DA1981E080937501089510927501089554
:100D70000F931F93CF93DF938C0182EE80938601B4
:100D800081E0809387019091540190938B01F80149
:100D9000958190938A01809388018093890183E0F3
:100DA00080938D0186E891E00E94880480938E01F3
:100DB00086E891E00E948D18EDE6F1E0D0E0C0E019
:100DC0008191811109C02196C830D105C9F7DF9101
:100DD000CF911F910F9108950E94CD0B9E01220F7C
:100DE000331F820F931FFC01808192EE9093860146
:100DF00091E0909387019091540190938B01F801B9
:100E0000958190938A0180938801C093890182E043
:100E100080938D0186E891E00E94880480938E0182
:100E200086E891E00E948D18C359DE4F1882CFCF1B
:100E300020916D0121111BC020916E01211117C05D
:100E400020916F01211113C02091700121110FC059
:100E50002091710121110BC020917201211107C055
:100E600020917301211103C02091740121110C9470
:100E7000B80620913A0121110C94D8050C9417065C
:100E8000CF93DF93EC0180916C01882321F1CE0197
:100E90000E94180782EE8093860181E0809387018B
:100EA0008091540180938B018D8180938A011092EF
:100EB00088010E948E0A8093890110928D0186E834
:100EC00091E00E94880480938E0186E891E0DF9192
:100ED000CF910C948D18DF91CF910895FC0124815E
:100EE0003091540123131EC02181263091F038F433
:100EF000213061F0223099F010923A0108952730A4
:100F000059F02830C9F70E949504F6CF0E94400797
:100F1000F3CF0E947005F0CF0E94B604EDCF0E947F
:100F20002905EACF2F3F11F40C94A1050895CF9322
:100F3000DF9380E00E944E08882349F189E0EFE8C2
:100F4000F1E0DF01982F1D929A95E9F7E6E8F1E0CC
:100F5000DF011D928A95E9F780E00E945E08823EDB
:100F600061F480938F01C0E9D1E080E00E94920893
:100F70008993B1E0C839DB07C1F780918F01823EC8
:100F800031F48FE891E0DF91CF910C946E07DF91FF
:100F9000CF910895E82FF0E0E359FE4F81E0808380
:100FA000089580919D0190919E0120919F01309123
:100FB000A00101968217930781F080919F01909183
:100FC000A001892B41F420919D0130919E0181E087
:100FD0002F31310509F080E0089581E00895809176
:100FE000990190919A0120919B0130919C01019669
:100FF0008217930781F080919B0190919C01892B2E
:1010000041F42091990130919A0181E02F3031050E
:1010100009F080E0089581E0089581E0089581114C
:1010200022C01092A00110929F0110929E01109276
:101030009D0110929C0110929B0110929A011092B6
:10104000990181E08093980186E08093C2007093BB
:10105000C5006093C40080E88093C1008091C10006
:1010600088618093C1000895811117C08FB778946B
:1010700040919B0150919C012091990130919A01DE
:1010800042175307A9F79091C10095FDFCCFF89442
:101090001092C1001092C2008FBF089581110CC040
:1010A00040919F015091A00120919D0130919E019E
:1010B00081E04217530709F480E00895811130C0A0
:1010C00040919F015091A00120919D0130919E017E
:1010D0004217530731F1E0919F01F091A001EF54C5
:1010E000FE4F8081E0919F01F091A001EF54FE4FEF
:1010F000108220919F013091A0012F31310558F4C9
:1011000020919F013091A0012F5F3F4F3093A001AC
:1011100020939F0108951092A00110929F010895BD
:1011200080E0089581110EC020919F013091A001AF
:1011300080919D0190919E0128173907A9F380E0C5
:101140000C945E0880E00895811102C00C94D107D0
:1011500080E0089581110CC040919F015091A00141
:1011600020919D0130919E0181E04217530709F0C3
:1011700080E00895CF93C62F81112AC00E94EF0707
:101180008111FCCFE0919901F0919A01EF55FE4F4A
:10119000C0838091990190919A010F97D8F4809122
:1011A000990190919A01019690939A0180939901E7
:1011B00080919801882361F0109298018091C1007C
:1011C00080628093C1008091C00080628093C000E3
:1011D000CF91089510929A0110929901E9CFCF9280
:1011E000DF92EF92FF920F931F93CF93DF9300D084
:1011F00000D00F92CDB7DEB79B01811130C0AE0198
:101200004F5F5F4F7A0195E0FA0111929A95E9F7E5
:101210009AE0C92ED12C672B19F401E00FC09B0175
:1012200001E0080FF701E80FF11DC901B6010E94A6
:10123000AD188083802F2A30310588F70150002EA9
:10124000000C110B07FD0BC0F701E00FF11F6081CF
:10125000605D80E00E94BA0801501109F3CF0F9041
:101260000F900F900F900F90DF91CF911F910F91E2
:10127000FF90EF90DF90CF900895CF93DF93882376
:1012800029F0DF91CF91089568E171E06115710552
:10129000D9F3EB0169916623A1F380E00E94BA08BB
:1012A000F9CF811102C00C94EF0780E008958111FD
:1012B0000CC040919B0150919C012091990130916B
:1012C0009A0181E04217530709F080E008951F92C8
:1012D0000F920FB60F9211242F933F934F935F936A
:1012E0006F937F938F939F93AF93BF93EF93FF93EE
:1012F000E0919D01F0919E018091C600EF54FE4F58
:1013000080830E94D10781110FC080919D0190912F
:101310009E014F97D0F480919D0190919E0101967E
:1013200090939E0180939D01FF91EF91BF91AF91AA
:101330009F918F917F916F915F914F913F912F91ED
:101340000F900FBE0F901F90189510929E01109253
:101350009D01EACF1F921FB61F9211242F933F9336
:101360008F939F93EF93FF9320919B0130919C016A
:101370008091990190919A012817390739F1E091EC
:101380009B01F0919C01EF55FE4F80818093C60038
:1013900080919B0190919C010F9798F480919B0103
:1013A00090919C01019690939C0180939B01FF91E9
:1013B000EF919F918F913F912F911F901FBE1F9092
:1013C000189510929C0110929B01F1CF81E08093BF
:1013D00098018091C1008F7D8093C100E8CFCF92AA
:1013E000DF92EF92FF92CF93DF93809104018823E5
:1013F000D1F01092D9011092DA011092DB01109213
:10140000DC011092DD011092DE011092DF011092DA
:10141000E0011092E1011092E2011092E3011092BA
:10142000E4011092040180915501823021F08091F5
:1014300056018230B9F5C090D901D090DA01E09020
:10144000DB01F090DC018AEFC80ED11CE11CF11C1D
:101450000E9451046C157D058E059F0518F10E94B0
:1014600051046093D9017093DA018093DB0190936A
:10147000DC01C091E501D0E0809105018C171D06CB
:1014800089F084F08C2F0E944C03FE01E352FE4F42
:101490009081891304C0DE01AF52BE4F8C938083CC
:1014A0002196EACFDF91CF91FF90EF90DF90CF9020
:1014B000089580915501823019F084E08093E50110
:1014C00080915601823019F084E0809305010895DF
:1014D00080915501823021F0809156018230E1F4F3
:1014E0002091E50130E04091050150E080E061E0AD
:1014F00070E0241735078CF4F901EF52FE4F90810C
:10150000992339F0FB01022E01C0EE0F0A94EAF78D
:101510008E2B2F5F3F4FEDCF80E00895CF93DF9369
:1015200080915501D0915601823049F40E94680A99
:10153000C82FD23061F48C2FDF91CF910895813084
:1015400071F4D13011F5DF91CF910C94B10BCF70C4
:10155000D13059F40E94B10B8370C82B06C0D23031
:1015600091F40E94680AC82FC07F80915501813094
:1015700011F70E94B10B20E1829FC0011124807CF1
:101580009927C82BD8CFC0E0E3CFC0E0D23049F3D1
:10159000ECCF0C94EF091F920F920FB60F9211240B
:1015A0001F932F933F934F935F936F937F938F93EB
:1015B0009F93AF93BF93CF93DF93EF93FF931091DC
:1015C000E60180910601181760F5812F0E944C03F7
:1015D000C12FD0E090E0CC0FDD1FFE01E550FE4FA3
:1015E00091838083892B91F0FE01E551FE4F80812C
:1015F0009181892B59F4FE01E55FFD4F8081918136
:10160000019691838083812F0E94CA07FE01E551D4
:10161000FE4FC550DE4F88819981918380831F5F83
:10162000D0CFFF91EF91DF91CF91BF91AF919F917B
:101630008F917F916F915F914F913F912F911F916A
:101640000F900FBE0F901F901895CF93DF9380914E
:101650005501813039F080915601813019F0DF91C8
:10166000CF910895EBE0F2E0CBEFD1E0ABEEB1E04B
:1016700011921192199219921D921D9282E0EB31F2
:10168000F807B1F71092E7011092E8011092E90112
:101690001092EA01F8941092B0001092B1001092EA
:1016A000B20083EF8093B3008091B000826080939A
:1016B000B0008091B10084608093B100809170008F
:1016C000826080937000789480915501813041F45C
:1016D00080915601813019F284E080930601BFCFDA
:1016E00084E08093E601F4CF0F931F93CF93DF93B1
:1016F00080915501813021F0809156018130C9F4EB
:101700000BE012E0C0E0D1E0EC2FE695D8018D911E
:101710009C91119712962D913C918217930771F02D
:10172000F0E0E951FE4FD083CE5F0C5F1F4FC83011
:1017300059F7DF91CF911F910F910895892BA1F354
:10174000F0E0E951FE4F1082F801118210821382FD
:1017500012828C2F0E94CA0781E08C0F0E94CA0758
:10176000E3CF80915501813021F080915601813085
:1017700091F4E7EEF1E050E040E080E02191042EAA
:1017800001C0220F0A94EAF7822B4F5F5F4F44306B
:101790005105A1F7089580E008958BE092E0089547
:1017A0008FE99FE00197F1F700C0000080911D02D2
:1017B0008823B1F310921D0280911B02880F811DB6
:1017C00090911E02892780931B0290911C029F5FBB
:1017D00090931C02983020F310921C0208956770B9
:1017E0007727982F062E01C0990F0A94EAF7719572
:1017F000619571096770772701C086956A95EAF748
:10180000892B0895E1E8F0E080E180831092800068
:1018100080E395E7909387008093860082E1808340
:10182000108210928500109284008083F89414BE78
:10183000E0E6F0E080818861808380E480837894B2
:10184000089580E180938100F89484B7877F84BFF6
:10185000E0E6F0E08081806180838081877F808303
:10186000A89514BE80818861808310827894089541
:10187000CF930E94020C0E94D00BC82F0E94210C13
:101880008C2FCF9108951F921FB61F9211248F9312
:10189000EF93FF93E4E8F0E0808180931E021182D1
:1018A000108281E080931D02FF91EF918F911F9034
:1018B0001FBE1F901895FC013383228355834483F8
:1018C000718360830895FC01168210861782128648
:1018D000118608951F93CF93DF93EC01E881F9817E
:1018E0000995182F89859A85892B71F48F819885A0
:1018F000892B51F4112321F00E94510478876F83C2
:10190000DF91CF911F9108958E818111F9CF0E94AF
:1019100051042F813885621B730B7A8769878A810E
:101920009B818617970760F71111EACF81E08E83BC
:10193000E7CFFC01848195810895FC01868188238D
:1019400071F041855285248135812417350730F0A7
:1019500016821086178212861186089580E00895F7
:10196000FC018681882371F041855285248135816F
:101970002417350730F416821086178212861186D6
:10198000089580E00895FC018681882339F081E084
:10199000218532856217730708F080E00895FC0105
:1019A000168210861782128611860895EF92FF9292
:1019B0000F931F93CF93DF938C01D62F8091220238
:1019C000909123028017910721F4809121028617BC
:1019D000C9F01093230200932202D093210284E2E3
:1019E000E82E82E0F82EC0E0F701819191917F010D
:1019F0000817190721F46D2F8C2F0E945810CF5F04
:101A0000C83091F7DF91CF911F910F91FF90EF9028
:101A10000895CF93DF93EB01882391F0E4E2F2E0A5
:101A2000819191918C179D0729F491E0892FDF9185
:101A3000CF91089582E0E433F80791F790E0F6CF74
:101A400081E090E00E94AC138C171D0671F383E2D5
:101A500090E00E94AC1391E08C171D0679F7E6CF59
:101A6000CF93DF93EB018D319105B9F160F48830AC
:101A7000910561F18C31910559F18730910551F44F
:101A800086E4888326C08D3F910561F1B8F48132E8
:101A9000910529F19C01215032402630310550F04A
:101AA000893022E0920731F09C012C5132402230E3
:101AB0003105D8F492500E94AC13E3CF873022E076
:101AC0009207F1F2883022E0920721F787EAD9CF16
:101AD000188281E0DF91CF91089580E8D2CF809184
:101AE0001F02CFCF0E943B15CCCF80E0F3CF0F93E6
:101AF0001F93CF93DF93C82F90E085960E94AC137D
:101B0000082FCC2389F0C8E9D0E02A9614E0602F92
:101B1000CE010E94831311502A961111F8CFDF9144
:101B2000CF911F910F910895C0E7EECFEF92FF92F2
:101B30000F931F93CF93DF937B01EE0CFF1CEE0CF2
:101B4000FF1C870103501109C82FD0E0602FCE0180
:101B50000E948313612FCE0101960E9483132A965F
:101B6000C8010196E016F10639F4DF91CF911F917B
:101B70000F91FF90EF9008958C01E8CF823010F420
:101B80000C94770D0895CF939C01277F2130310568
:101B9000B1F481E090E00E94B413C82F89E090E096
:101BA0000E94B41390E4899FB00111246C2B88E744
:101BB0000E94960D81E080932002CF9108959C01B0
:101BC000235231092230310580F483E290E00E94F3
:101BD000B413C82F84E290E00E94B41390E4899F6C
:101BE000B00111246C2B80EAE3CF9C01255231090E
:101BF0002230310520F485520E94BE0DDBCF9C01BE
:101C0000285731092230310578F02A503109223025
:101C1000310550F02A5031092230310528F02A5080
:101C200031092230310558F460E081E090E00E94F3
:101C3000831360E089E090E00E948313BBCF9C0196
:101C4000205A31092230310578F02A5031092230EA
:101C5000310550F02A5031092230310528F02A5040
:101C600031092230310548F460E083E290E00E94BF
:101C7000831360E084E290E0DFCF8A37910549F07A
:101C80008438910531F08E38910519F08839910525
:101C900021F460E085E290E0CFCF823A910551F0E7
:101CA0008C3A910539F0863B910521F0803C9105F5
:101CB00009F080CF60E086E290E0BECFFF920F9304
:101CC0001F93CF93DF93D0E0C0E00AE010E0CE0195
:101CD00087589F4F0E94B413F82ECE0188589F4F0B
:101CE0000E94B413282FCE01B8010E94C118FB0135
:101CF000EE0FFF1FEC5DFD4F8F2D90E0982F882792
:101D0000820F911D918380832A96C035D105F9F603
:101D1000DF91CF911F910F91FF90089561E081E0D5
:101D200090E00E94831360E089E090E00E948313BA
:101D300061E070E088E70E94960D62E083E290E047
:101D40000E94831360E084E290E00E94831362E0CB
:101D500070E080EA0E94960D64E685E290E00E94C1
:101D6000831364E686E290E00E94831360E083E0E0
:101D700090E00E94831360E084E090E00E9483136F
:101D800060E085E090E00E94831360E086E090E0F0
:101D90000E94831380E00E94770D81E00E94770DFE
:101DA0006AEA8EEF90E00E94831365E58FEF90E082
:101DB0000E94831381E080931F0208958E3F910556
:101DC00008F06CC08238910509F43FC080F58E316F
:101DD0009105C8F48C31910508F060C087309105F9
:101DE00009F45CC028F4019709F454C081E0089517
:101DF0008830910509F458C00997C1F781E068302F
:101E000008F451C04BC08732910550F485329105DA
:101E100008F046C083329105E9F1849779F3E6CF63
:101E20008837910591F08937910541F3DFCF813AE9
:101E3000910521F3C0F48D38910501F350F48338F6
:101E40009105E1F28C38910589F681E06D3F58F1FA
:101E500025C08739910591F2803A9105B1F3863911
:101E6000910521F6F2CF843B910579F338F48A3A53
:101E7000910559F38B3A910509F2B8CF8E3B910544
:101E800021F38F3B910509F4B9CF853B910509F00A
:101E9000ADCFB4CF615081E06F3328F080E003C054
:101EA00081E06623D9F308956F3FC1F70E948E0E3B
:101EB0009DCF823050F4693040F42AE0629FC00127
:101EC000112486589F4F0C94AC1384E60895539ABE
:101ED0005B988EEF90E00E94AC138A3A09F10E9461
:101EE0008E0E0E945E0E0E94F91487E091E00E941F
:101EF000161584E797E10E9436150E94510489E681
:101F000091E09F938F930E94741782E691E09F93D4
:101F10008F930E9474170F900F900F900F90089559
:101F20008FEF90E00E94AC138535C9F6DACF80912F
:101F30002002882321F00E945E0E10922002089554
:101F4000CF92DF92EF92FF920F931F93CF93DF9385
:101F500008E010E08EE4C82E81E0D82E9BE4E92E44
:101F600091E0F92EE8012897CE010E94AC131F9250
:101F70008F93DF93CF93DF92CF920E9474172196B5
:101F80000F900F900F900F900F900F900C171D0750
:101F900059F7FF92EF920E947417085F1F4F0F903E
:101FA0000F90083081E01807E9F6DF91CF911F917B
:101FB0000F91FF90EF90DF90CF90089580915501A1
:101FC000833069F4549A559A579A529A80915601DF
:101FD0008330B9F4219A229A249A259A089584305C
:101FE00019F4549A569AF0CF853081F7549A559A3D
:101FF000569A579A529A5C9A5D9A5E9A5F9A5A9A42
:10200000E5CF843019F4219A239AE6CF853051F434
:10201000219A229A239A249A259A2D9A299A2A9AC1
:102020002B9A2C9A0895CF93DF93D82FC62F44E68E
:1020300050E060E070E081E00E948A03D83048F40C
:10204000ED2FF0E0E050F34E0C94F418CC2321F087
:102050005C9ADF91CF9108955C98FBCFCC2311F06F
:102060005D9AF7CF5D98F5CFCC2311F05F9AF1CF51
:102070005F98EFCFCC2311F05A9AEBCF5A98E9CF63
:10208000CC2311F0299AE5CF2998E3CFCC2311F086
:102090002A9ADFCF2A98DDCFCC2311F02C9AD9CF02
:1020A0002C98D7CFCC2311F02D9AD3CF2D98D1CF08
:1020B0008830F8F4843080F490915501933011F415
:1020C0000C94131094509230A0F48295807F680F86
:1020D00080E492E00C944B1790915601933081F379
:1020E0009450923030F48295807F680F8AE492E0B9
:1020F000F1CF0895E82FEE0FE60FE03140F4F0E065
:10210000E85FF24E0C94F4185A985F985E98843009
:1021100050F55C9A08955A9AF8CF5A985F9AF6CF7C
:102120005A9AFCCF5A985F985E9AF1CF5A9AFBCF91
:102130005A985F9AF9CF5A9AFCCF2D982C982B98E1
:10214000E6CF2D9AFBCF2D982C9AF9CF2D9AFCCF64
:102150002D982C982B9ADBCF2D9AFBCF2D982C9A6B
:10216000F9CF2D9AFCCF299A0895811102C05C986D
:10217000089529980895843068F4662349F05E9A9A
:102180008830E8F4E82FF0E0E85EF24E0C94F418A2
:102190005E98F6CF662311F02B9AF2CF2B98F0CFF2
:1021A0005C9808955D9808955F9808955A980895E9
:1021B000299808952A9808952C9808952D9808959F
:1021C000CF93C82F1F928F9380E791E09F938F93B7
:1021D0000E9474170F900F900F900F90C11107C0BD
:1021E0005C9A5D9A5E9A5F9A5A9ACF9108952D9A59
:1021F000299A2A9A2B9A2C9AF8CF8F929F92AF9273
:10220000BF92DF92EF92FF920F931F93CF93DF93D2
:102210000F92CDB7DEB7D82E082F10E07801EE0C64
:10222000FF1CEE0CFF1CF701E85CFD4F80819181E3
:10223000A281B381892B8A2B8B2B09F050C02AE015
:10224000D29EC0011124BE016F5F7F4F805C9D4F05
:102250000E945E1781112EC06981D62ED2942FE084
:10226000D2226F70F801EC5AFE4F8181843079F5EB
:102270008D2D0E947A106D2D80E00E94590F000F65
:10228000111FF801EC5CFD4F24E1829FC001112475
:10229000918380834CE251E060E070E081E00E9435
:1022A0008A030E945104F701E85CFD4F608371834B
:1022B000828393830F90DF91CF911F910F91FF90B5
:1022C000EF90DF90BF90AF909F908F9008958530F2
:1022D00009F78D2D0E94BB106D2D81E0CECF0E949D
:1022E0002B04811107C044E150E060E070E08FEF03
:1022F0000E948A030E945104F701E85CFD4F808030
:102300009180A280B380AB01BC01481959096A09C8
:102310007B09F801EE0FFF1FEC5CFD4F808191817E
:10232000B0E0A0E084179507A607B70718F6F801F4
:10233000EC5AFE4F8181843069F48D2D0E94B510D6
:102340000E94A403F701E85CFD4F10821182128203
:102350001382B0CF8530A1F78D2D0E94E010F0CF11
:10236000809155018450823018F480E00E94FD1065
:10237000809156018450823018F481E00C94FD1055
:102380000895089581E88093810081E280936F0031
:10239000109268021092690210926A0210926B0207
:1023A00081E090E09093670280936602109265024C
:1023B0001092640210926302109262021092610203
:1023C0001092600210925D020895DC018091560225
:1023D000882379F02FB7F89496E0E7E5F2E00190D2
:1023E0000D929A95E1F780915502109256022FBFF7
:1023F000089580E008951F921FB61F921124CF9276
:10240000DF92EF92FF920F931F932F933F934F937F
:102410005F936F937F938F939F93AF93BF93CF936C
:10242000EF93FF93009186001091870030E020E049
:10243000C09181004091540280916802909169029C
:10244000A0916A02B0916B0268017901C81AD90A99
:10245000EA0AFB0AD701C601442361F04091540205
:1024600050E070E060E0BA0155274427840F951FC3
:10247000A61FB71F109254020093680210936902BE
:1024800020936A0230936B02803421E09207A10509
:10249000B10508F581E090E09093670280936602B1
:1024A0001092610210926002FF91EF91CF91BF9163
:1024B000AF919F918F917F916F915F914F913F91DC
:1024C0002F911F910F91FF90EF90DF90CF901F9071
:1024D0001FBE1F90189520915D02211112C090938C
:1024E0005F0280935E0281E080935D0280918100B3
:1024F00090E4892780938100C6FDF6C01899CACF61
:10250000D3CF20915E0230915F02AC01BD01420F3A
:10251000531F611D711D90935F0280935E028A01BB
:102520009B010053164021093109013282E018074E
:102530002105310500F500008091810090E4892794
:102540008093810010925D02013212402105310515
:1025500008F055C080916602909167028130910524
:10256000E1F4809164029091650201969093650276
:1025700080936402C1CFDB01CA0180529B40A10954
:10258000B1098132944EA240B105A8F28091810038
:1025900090E48927809381007DCF029709F0ACCF2A
:1025A00080916202909163020196909363028093FE
:1025B0006202E0916002F09161028930910578F049
:1025C00081E090E09093670280936602E093550269
:1025D0008093560210926102109260028DCFE95AE8
:1025E000FD4F208148E050E0481B590B81E090E00E
:1025F00001C0880F4A95EAF7822B80837DCF405235
:102600005B40610971094132544E6240710508F026
:1026100073CF80916602909167028130910551F5E8
:1026200080916402909165020B97F8F0809172029C
:1026300090917302019690937302809372021092AC
:102640006502109264021092630210926202E7E542
:10265000F2E086E0DF011D928A95E9F782E090E0E2
:10266000909367028093660247CF109265021092A2
:10267000640242CF029709F03FCF2091620230916D
:1026800063022F5F3F4F3093630220936202E09119
:102690006002F091610229303105B0F03196F0937B
:1026A0006102E0936002369750F081E090E09093F1
:1026B000670280936602109261021092600210928B
:1026C00063021092620218CFE95AFD4F608148E020
:1026D00050E0421B530B81E090E001C0880F4A9507
:1026E000EAF78095862389CF189BD4CEDDCE8F93D1
:1026F0008FB78F93809154028F5F809354028F9194
:102700008FBF8F911895813024E0920710F40C94BC
:10271000A51C08951F93CF93DF93EC01162FE09132
:102720007A02F0917B02309761F4612FCE010E9412
:102730008313E0917E02F0917F02309749F481E0AB
:1027400003C009958111F1CFDF91CF911F910895B9
:10275000612FCE010995F3CF813024E0920710F468
:102760000C948D1C80E008950F931F93CF93DF93FB
:102770000F92CDB7DEB78C01E0917C02F0917D0223
:10278000309769F0BE016F5F7F4F0995882339F05C
:1027900089810F90DF91CF911F910F910895C8010A
:1027A0000E94AC13F6CFFF920F931F93CF93DF934A
:1027B0000F92CDB7DEB78C01F62E013084E01807FA
:1027C00050F5E0917C02F0917D023097E1F4C80170
:1027D0000E948D1C8983898190E021E030E00F2CDC
:1027E00002C0220F331F0A94E2F78223932302C010
:1027F00095958795FA94E2F70F90DF91CF911F910D
:102800000F91FF900895BE016F5F7F4FC80109953A
:102810008823E9F2E0CF80E0EFCF0F931F93CF93AF
:10282000DF93EC01062F142F0E94B41361E070E0D7
:1028300001C0660F0A95EAF7112341F0682BCE011B
:10284000DF91CF911F910F910C948A1360956823AB
:10285000F6CFDC01E0916C02F0916D02309749F106
:1028600015968C9115971F928F9314968C911497AF
:102870001F928F9313968C9113971F928F9312969A
:102880008C9112971F928F9311968C9111971F9292
:102890008F938C911F928F9384E891E09F938F93F5
:1028A00009958DB79EB70E960FB6F8949EBF0FBED2
:1028B0008DBF0895CF92DF92EF92FF920F931F93F7
:1028C000CF93DF93EC018C010A5F1F4FEE24E3945A
:1028D000F12C87E0C82ED12C688170E0C7010C2C48
:1028E00002C0880F991F0A94E2F7682379230C2C01
:1028F00002C0759567950A94E2F780E00E94EF08A0
:1029000081E0C81AD10840F76DE171E080E00E94D3
:102910003D0921960C171D07E1F66FE171E080E09B
:10292000DF91CF911F910F91FF90EF90DF90CF90AB
:102930000C943D098AE892E00895482FFC0120E0BC
:102940003E2F341B361718F431912327F9CFFC01A1
:10295000E60FF11D81E090E03081321711F090E038
:1029600080E008951F93CF93DF93EC01162F0E9410
:102970009D14892BE9F4E0916C02F0916D0230977F
:1029800039F08EE791E09F938F9309950F900F9008
:10299000CE010E94291480917002909171020196DB
:1029A0009093710280937002DF91CF911F910895EF
:1029B00080916E0290916F02019690936F028093C6
:1029C0006E0288818F3F61F0612FCE010E94C61692
:1029D0000E94B816811104C0612FCE010E94E61535
:1029E00086E0FE01AAE8B2E001900D928A95E1F737
:1029F000DBCF0E94C211539AEAE7F2E01182108203
:102A0000138212821582148217821682089584E836
:102A100092E00E94E511882329F0682F84E892E073
:102A20000C94B21408958EE692E00895DC018D9125
:102A30009C911197EAE7F2E09183808312968D9141
:102A40009C9113979383828314968D919C911597F3
:102A50009583848316968D919C911797978386838F
:102A600018968D919C9191878087089590936D021F
:102A700080936C02089586E00895E0918002F091C1
:102A80008102309711F1DC0111966C911197462F5C
:102A900050E061709A0120953095220F331F220F6C
:102AA000331F207C31708C918F73282B2150304C38
:102AB000220F331F220F331F559547954370842FE4
:102AC00090E00196820F931F09940895CF93DF93AE
:102AD000EC01653088F08A81807F803E81F0E09152
:102AE0006C02F0916D02309739F088E991E09F9384
:102AF0008F9309950F900F90DF91CF9108952981C1
:102B0000822F90E0BC0160957095660F771F660F6D
:102B1000771F607C717038813F73632B322F387060
:102B200023FF0DC095958795837099270196615075
:102B3000704C660F771F660F771F680F791FE09143
:102B40008202F09183023097B9F281E0323008F4CA
:102B500080E00995882381F22A8130E0522F4427B2
:102B6000442753708B81840F952F911D01963595C5
:102B700027953595279523706C81223039F02330C5
:102B800009F0BACFDF91CF910C948A13462F50E011
:102B90009A0174E0359527957A95E1F720FFACCF3F
:102BA00023E0559547952A95E1F741706770DF91CD
:102BB000CF910C940D14FC01218127FF06C06330D6
:102BC00010F00C9466150C943D1508951F93CF9347
:102BD000DF93EC01162F0E949A14FC0188818F3F2D
:102BE00009F19081891314C021819981291310C0A2
:102BF00022819A8129130CC023819B81291308C04B
:102C000024819C81291304C025819D81291751F0BD
:102C1000807C803839F4612FCE01DF91CF911F91F4
:102C20000C94DB15DF91CF911F9108955B9A8FE58E
:102C30009DE60197F1F700C000005B980895CF93DF
:102C4000DF93FC01DB016081262F30E0A90155955F
:102C500047955595479543705181322F222722275A
:102C60003370250F311DC9010196C2812091930255
:102C70002223F1F02C9162131BC011962C91119715
:102C8000521316C012962C9112972C1311C0139642
:102C90003C911397238132130BC014963C911497E7
:102CA0002481321305C015963C912581321769F0B5
:102CB00021E020939302423059F0433041F14130FA
:102CC00021F40E94B4138C17D1F0DF91CF910895B5
:102CD0002C2F30E0A90163E0559547956A95E1F7FF
:102CE000D42FD1706C2F677074E0359527957A9545
:102CF000E1F720FD08C00E94D313D813E6CFDF917F
:102D0000CF910C9416164D2F0E940D14F8CF6C2FF6
:102D10000E948A138823C9F2F2CFCF93DF93EC018C
:102D20004881842F8770853039F48981809311011F
:102D3000DF91CF910C941616209111012150330B85
:102D4000220F331F220F331F820F932F911D0196E5
:102D500043FD08C00E94B4139981891749F3DF919C
:102D6000CF91089569810E948A138823C1F3E0CF2F
:102D700081E090919502911101C080E00895109238
:102D8000940210929302109295020895FF920F936D
:102D90001F93CF93DF938C01F62E0E949A14EC01BF
:102DA000F8019081292F207780919502203711F426
:102DB0009F3F51F4882309F44BC0DF91CF911F91BD
:102DC0000F91FF900C94BF16811148C088819981A2
:102DD000890F9927991F2A81820F911D2B81280F16
:102DE000392F311D8C81280F311D8D81820F932F3A
:102DF000911D892B59F50E94BF1681E080939502A1
:102E0000809194028823C9F12881F80190812913C7
:102E100019C029819181291315C02A819281291312
:102E200011C02B81938129130DC02C81948129130A
:102E300009C02D819581291305C08F5F809394026D
:102E4000882331F082E0809395020CC010929402A6
:102E5000DF91CF911F910F91FF900895813081F202
:102E60008230B1F7F2E0FF120CC0C801DF91CF91C0
:102E70001F910F91FF900C948D1681E08093940226
:102E8000E1CF4F2DBE01C801DF91CF911F910F916E
:102E9000FF900C941F16FC01208530E0C9010196BB
:102EA000877099274185481739F02E0F3F1FD901A8
:102EB0006C93808780E008958FEF0895FC01A185D1
:102EC00080858A1779F0AE0FBF2FB11D8C91DB0181
:102ED0008C93218530E02F5F3F4F27703327218768
:102EE00080E008958FEF0895CF93DF93CDB7DEB7DD
:102EF0008091120190911301892B59F0AE01495F25
:102F00005F4F6D817E8180919802909199020E941D
:102F1000FF19DF91CF91089580E00E944E08882329
:102F2000E1F080E00E945E08843699F480911201FD
:102F30009091130121E08227909313018093120155
:102F400080EB91E09F938F930E9474170F900F90E6
:102F50000895833611F40C94A00F08957F936F9316
:102F60009F938F935F934F9382E291E09F938F9310
:102F70000E94E9198DB79EB708960FB6F8949EBFC8
:102F80000FBE8DBF80E00C949208CF93C091570183
:102F9000C13069F50E94C90A0E94740B0E9497070C
:102FA0008BE391E00E949D0C882339F0C0933A0195
:102FB0000E942B0481110E94A4038BE391E00E94E4
:102FC000B00C882359F081E080933A014CE251E043
:102FD00060E070E0809154010E948A038BE391E0ED
:102FE0000E946A0C0E94BE03CF910C948C170E9421
:102FF00007150E94970F0E94B011F4CF529A5A9869
:10300000789460E170E080E00E940F0885E091E034
:1030100090934F0180934E011092510110925001F4
:1030200082E08093490186E491E090939902809335
:1030300098020E943B151F928F931F9286E48F93F4
:1030400085E890E09F938F930E9474170E940C0173
:103050000E9467010E94C1020E9436038BE391E047
:103060000E94630C0E947C030E94750480915701AA
:103070000F900F900F900F900F900F90813049F5A7
:103080000E94590A0E94250B0E9492060E94380C49
:10309000C82F809359010E945C04AB01BC018C2FA6
:1030A00090E0B0E0A0E026E1880F991FAA1FBB1FA7
:1030B0002A95D1F78C019D0104271527262737274C
:1030C000C901B8010E94D1190E9475040E94C51758
:1030D000FDCF823079F48FE790E09F938F930E9429
:1030E00074170E94670F0E94DE0F109259010F9013
:1030F0000F90ECCF88E690E09F938F930E94741717
:103100000F900F90FFCF29E130E044EF51E069E7E5
:1031100073E08BE391E00C945B0C0F931F93CF93C0
:10312000DF93E7EEF3E03197F1F700C000005A9A21
:10313000EC018C01075F1F4F699180E00E94BA0883
:10314000C017D107C9F78091C00086FFFCCF5A98FD
:10315000DF91CF911F910F910895AA1BBB1B51E1E5
:1031600007C0AA1FBB1FA617B70710F0A61BB70BF7
:10317000881F991F5A95A9F780959095BC01CD019C
:10318000089597FB072E16F4009407D077FD09D019
:103190000E94AD1807FC05D03EF4909581959F4F95
:1031A0000895709561957F4F0895052E97FB1EF445
:1031B00000940E94EC1857FD07D00E94051907FCE7
:1031C00003D04EF40C94EC18509540953095219511
:1031D0003F4F4F4F5F4F0895909580957095619543
:1031E0007F4F8F4F9F4F0895EE0FFF1F0590F49173
:1031F000E02D09940E942719A59F900DB49F900D72
:10320000A49F800D911D11240895A1E21A2EAA1BDE
:10321000BB1BFD010DC0AA1FBB1FEE1FFF1FA21786
:10322000B307E407F50720F0A21BB30BE40BF50B83
:10323000661F771F881F991F1A9469F7609570950C
:10324000809590959B01AC01BD01CF010895A29F8F
:10325000B001B39FC001A39F700D811D1124911D6A
:10326000B29F700D811D1124911D08958F929F9220
:10327000AF92BF92CF92DF92EF92FF92CF93DF9304
:10328000EC01688179818A819B81611571058105D5
:10329000910521F464E279ED8BE597E02DE133EFC0
:1032A00041E050E00E94D51849015A019B01AC0150
:1032B000A7EAB1E40E94FA186B017C01ACEEB4EF0E
:1032C000A50194010E94BA1CC60ED71EE81EF91E65
:1032D000F7FE06C081E0C81AD108E10880E8F80AC4
:1032E000C882D982EA82FB82C701B6019F77DF914B
:1032F000CF91FF90EF90DF90CF90BF90AF909F90D5
:103300008F9008958F929F92AF92BF92CF92DF924B
:10331000EF92FF9260911401709115018091160156
:1033200090911701611571058105910521F464E201
:1033300079ED8BE597E02DE133EF41E050E00E941D
:10334000D51849015A019B01AC01A7EAB1E40E94DA
:10335000FA186B017C01ACEEB4EFA50194010E9458
:10336000BA1CC60ED71EE81EF91EF7FE06C081E085
:10337000C81AD108E10880E8F80AC0921401D09276
:103380001501E0921601F0921701C701B6019F776F
:10339000FF90EF90DF90CF90BF90AF909F908F9075
:1033A0000895609314017093150180931601909312
:1033B00017010895FB01DC014150504048F0019095
:1033C0000D920020C9F701C01D9241505040E0F716
:1033D0000895B0E0A0E0EFEEF9E10C94CF1CAE014F
:1033E0004B5F5F4FFA0161917191AF01809198023B
:1033F000909199020E940E1AE2E00C94EB1CCF937C
:10340000DF93EC018B8188608B83CE010E940E1AC2
:103410002B81277F2B83DF91CF910895ABE0B0E024
:10342000E4E1FAE10C94BF1C7C013B018A01FC0140
:1034300017821682838181FFB9C19AE0292ECE01BD
:1034400001965C01F7019381F30193FD859193FF50
:1034500081913F01882309F446C1853239F493FDF7
:10346000859193FF81913F01853229F4B70190E066
:103470000E94EF1BE7CF912C412C512CFFE1F51559
:1034800038F08B3209F188F4803201F1833221F176
:1034900057FC3AC020ED280F2A3040F556FE1FC0D9
:1034A000929C200D1124922E06C08D3291F0803313
:1034B00079F7689450F8F30193FD859193FF81911A
:1034C0003F018111DBCF20C0689451F8689452F815
:1034D000F2CF689453F8EFCF689454F8ECCF429C45
:1034E000200D1124422E689455F8E5CF8E3229F430
:1034F00056FCF9C0689456F8DECF8C3619F46894FF
:1035000057F8D9CF8836B9F2982F9F7D95549330CC
:10351000C0F08336A1F18337C1F1833509F05BC078
:10352000F801C190D1908F01692D70E056FC02C066
:103530006FEF7FEFC6010E94D91B4C01689457F8CA
:103540000AC00C5F1F4F2FE3298388248394912C9A
:103550006501E89457F853FC04C04814190409F0B5
:1035600018F5342C8114910431F5332009F46ACF15
:10357000B70180E290E00E94EF1B3A94F6CFF80189
:10358000808189830E5F1F4FE0CFF801C190D190F9
:103590008F01692D70E056FC02C06FEF7FEFC6010E
:1035A0000E94E41B4C01D5CFB70180E290E00E945D
:1035B000EF1B4A94D2CFF60157FC859157FE8191BB
:1035C0006F01B70190E00E94EF1B31103A94F1E0D7
:1035D0008F1A9108C7CF843619F0893609F074C064
:1035E000F80157FE6AC061917191819191918F01AB
:1035F000252D2F76D22E97FF09C090958095709536
:1036000061957F4F8F4F9F4F6894D7F82AE030E045
:10361000A5010E941F1CC82ECA188C2C5D2CD6FE3A
:103620000CC0E89450F8C91440F4D4FE05C0D2FC94
:1036300003C0FD2DFE7E5F2E892C54FE8FC0FE013F
:10364000EC0DF11D8081803309F081C0252D297E8C
:10365000522E852D8870382E53FC8FC050FE89C0A5
:103660009C2C841418F44C0C942C981854FE8BC089
:10367000B70180E390E00E94EF1B52FE09C088E78B
:1036800090E051FE02C088E590E0B7010E94EF1B78
:10369000C91408F484C0CA94D12C9FEFC91AD90A5E
:1036A000CA0CDB1CF60182916F01B70190E00E9409
:1036B000EF1BAC14BD04B1F758CF61917191072E87
:1036C000000C880B990B93CFD52CE894D4F82AE002
:1036D00030E0853739F1952D997FD92E8F3601F15C
:1036E00048F48835A9F0F701868197812B96E2E1AD
:1036F0000C94DB1C803749F08837A9F7D4FE02C050
:103700006894D2F820E130E00DC06894D4F8F6CF88
:1037100054FE03C0E92FE660DE2E20E132E002C055
:1037200028E030E0F801D7FE0DC0619171918191E0
:1037300091918F01A5010E941F1CC82ECA18E89400
:10374000D7F86BCF6191719190E080E0F2CF52FC9D
:1037500002C083947ECF839483947BCF852D86781B
:1037600009F477CFF6CFB70180E290E00E94EF1B1B
:1037700083948414C0F3312C79CF342C38188414FA
:1037800008F474CFF8CF852D867809F481CF8BE2C9
:1037900051FE80E257FC8DE2B70190E077CFB70190
:1037A00080E390E00E94EF1B9A9472CF8FEF9FEF1F
:1037B0009DCFFC010590615070400110D8F78095B5
:1037C00090958E0F9F1F0895FC01615070400190ED
:1037D0000110D8F7809590958E0F9F1F08950F9335
:1037E0001F93CF93DF93182F092FEB018B8181FD5E
:1037F00009C01FEF0FEF812F902FDF91CF911F9105
:103800000F91089582FF14C02E813F818C819D818C
:10381000281739073CF4E881F981CF010196998393
:10382000888310838E819F8101969F838E83E3CF4F
:10383000E885F985812F0995892BA1F3DACFFA0163
:10384000AA27283051F1203181F1E8946F936E7FDF
:103850006E5F7F4F8F4F9F4FAF4FB1E03ED0B4E0D0
:103860003CD0670F781F891F9A1FA11D680F791F11
:103870008A1F911DA11D6A0F711D811D911DA11D22
:1038800020D009F468943F912AE0269F1124301932
:10389000305D3193DEF6CF010895462F4770405DCD
:1038A0004193B3E00FD0C9F7F6CF462F4F70405D7C
:1038B0004A3318F0495D31FD4052419302D0A9F7D7
:1038C000EACFB4E0A6959795879577956795BA95D1
:1038D000C9F700976105710508959B01AC010A2E97
:1038E00006945795479537952795BA95C9F7620F6E
:1038F000731F841F951FA01D0895DC01CB01FC01DF
:10390000F999FECF06C0F2BDE1BDF89A319600B438
:103910000D9241505040B8F70895F999FECF92BDED
:1039200081BDF89A992780B50895DC01A40FB51FD1
:103930004150504048F0CB01840F951F2E910E94BA
:10394000A61C41505040D0F70895262FF999FECF7C
:1039500092BD81BDF89A019700B4021639F01FBAE2
:1039600020BD0FB6F894FA9AF99A0FBE0895B7FFE2
:103970000C94FA180E94FA18821B930B08952F9248
:103980003F924F925F926F927F928F929F92AF92EF
:10399000BF92CF92DF92EF92FF920F931F93CF933C
:1039A000DF93CDB7DEB7CA1BDB0B0FB6F894DEBFD3
:1039B0000FBECDBF09942A88398848885F846E84F9
:1039C0007D848C849B84AA84B984C884DF80EE8043
:1039D000FD800C811B81AA81B981CE0FD11D0FB64C
:1039E000F894DEBF0FBECDBFED010895F894FFCF70
:1039F000540358035D03620367036B03700375038D
:103A000026102E1034103A10401046104C10521050
:103A100098109B10921096108D10901084108B109F
:103A2000AE10B110A810AC10A310A6109D10A110DC
:103A3000D010D210D410D610D810DA10DC10DE104E
:103A400090010000010808DE0E300DC30DD60C09F0
:103A50000D010100010000004E554C4C0020000DEE
:103A60000A004572726F7220696E2025732061749E
:083A70002025733A25640000D3
:00000001FF
